:1000000000000120BD020000E5020000D92400002C
:10001000E9020000EB020000ED0200000000000019
:10002000000000000000000000000000EF020000DF
:10003000F102000000000000F3020000F5020000E1
:10004000B17D0000F702000041730000F7020000DC
:10005000F7020000F70200009D810000F702000097
:10006000F7020000F7020000B98C0000F702000060
:10007000F7020000F7020000F7020000F70200009C
:10008000F7020000C5240000F7020000F70200009C
:10009000F7020000F7020000F7020000F70200007C
:1000A000F7020000F7020000118D0000698D0000CA
:1000B000F7020000F702000000000000000000004E
:1000C000F7020000F7020000F7020000F70200004C
:1000D000158A0000F7020000F7020000000000008F
:1000E0000000000000000000000000000000000010
:1000F0000000000000000000000000000000000000
:1001000000000000000000000000000000000000EF
:1001100000000000000000000000000000000000DF
:1001200000000000000000000000000000000000CF
:1001300000000000000000000000000000000000BF
:1001400000000000000000000000000000000000AF
:10015000000000000000000000000000000000009F
:10016000000000000000000000000000000000008F
:10017000000000000000000000000000000000007F
:10018000000000000000000000000000000000006F
:10019000000000000000000000000000000000005F
:1001A000000000000000000000000000000000004F
:1001B000000000000000000000000000000000003F
:1001C000000000000000000000000000000000002F
:1001D000000000000000000000000000000000001F
:1001E000000000000000000000000000000000000F
:1001F00000000000000000000000000000000000FF
:1002000010B5054C237833B9044B13B10448AFF350
:1002100000800123237010BDC002002000000000F8
:10022000B0C3000008B5034B1BB103490348AFF34B
:10023000008008BD00000000C4020020B0C3000020
:10024000A3F5803A704700BF174B002B08BF134B34
:100250009D46FFF7F5FF00218B460F461348144AD1
:10026000121A09F08FFE0E4B002B00D098470D4B51
:10027000002B00D098470020002104000D000D48FD
:10028000002802D00C48AFF3008009F02FFE2000B8
:10029000290009F041F809F015FE00BF0000080030
:1002A000000000000000000000000120C00200204B
:1002B0009C24002000000000000000000649074ABE
:1002C000074B9B1A03DD043BC858D050FBDC09F0F8
:1002D0000DFCFFF7B9FF0000E8C50000000000209A
:1002E000C0020020FEE7FEE7FEE7FEE7FEE7FEE7CE
:1002F000FEE7FEE7FEE7FEE7704700BF00B583B00C
:10030000044B0093044A402300F036F803B05DF834
:1003100004FB00BF1D030000E002002002B32DE932
:10032000F843114B114E88461446032743F0010948
:100330000025224608EB0501002009F0AFF903462D
:10034000E41A4FF47A401D4423B9337833B1C847D7
:10035000013F06D001233370002CEAD1BDE8F883B9
:1003600070473770BDE8F88320A60000DC0200204B
:10037000704700BF09F08ABBF0B595B0084600246D
:100380000E4617461D4607F03DF91A9A0D92234670
:10039000082205A93046CDE9095408978DF82C406C
:1003A0000C9407F093F9DDE906219DF814308DF8DF
:1003B0001140CDE9021203F00302012A28D0022ADB
:1003C00004D0304607F022F915B0F0BDBDF8165044
:1003D000C3F3C203C5F389158DF810300827082D23
:1003E0002C4628BF08243B4622460EA9304607F07B
:1003F0006DF92D1B08AB02AA21460EA8274401F077
:10040000C1F8002DEBD1304607F000F915B0F0BD72
:10041000BDF814100598C1F38312C3F3C203C0F3EF
:100420009525C1F383148DF810300EA93046920043
:10043000082307F04BF908AB0093224602AB0EA944
:10044000284601F029F8304607F0E0F815B0F0BD75
:1004500008B5FFF78FFF0448042100F055FF034B58
:1004600001225A7108BD00BF40C5000000000020F5
:10047000054A00230428C1E90132CB609CBF034B2D
:1004800053F820300B607047C4AA0000E8AA0000AF
:10049000C368DB6800225A71704700BFC368DB681D
:1004A00001225A71704700BF10B50F4B0F4CA4EBDF
:1004B000030E00220E4CCA605FEA1E1EC1E9002234
:1004C0008C600DD003EB0E1EDC6894F804C0BCF108
:1004D000FF0F02D0904204D0013210337345F3D1A4
:1004E00010BD9B680B6010BD40C5000070C50000CA
:1004F000FCAA00000129034604D08168D1F85414F5
:10050000890704D500221146184605F015B810B524
:10051000054954681368054A82B0CDE900140221E8
:1005200003F06EFC02B010BD50A6000044A600000F
:100530008368D3F854349B0732D42DE9F0471A4C22
:100540001A4E361B360982B027D0DFF868A0DFF8D4
:100550006890DFF86880074604EB06160EE093F813
:1005600005E0A368BEF1000F14BFD446CC46CDE928
:1005700000C5103403F044FCA6420ED0E3681D7998
:10058000FF2D42464FF008013846E8D1A368084ADB
:10059000103403F035FCA642F0D102B0BDE8F0877C
:1005A0000022114604F0C8BF40C5000070C500001D
:1005B0007CA6000068A6000070A600009CA60000B3
:1005C0008368D3F854349B0703D4044A022103F010
:1005D00017BC0022114604F0AFBF00BFC0A6000048
:1005E00070B5304D84B005F5836002F049F905F22D
:1005F000144002F045F9AB68DAB2D11C05EB81007A
:1006000015F821104C0710D501F00404017801F011
:100610000301012938D0022903F1020602F1030186
:1006200026D005EB8100002CF0D105EB82015A1C8D
:10063000C8680190D2B205EB820200F003010129E3
:10064000D66803F1020425D002290FD1BDF8063087
:10065000C3F389130333360C04EB9304124802F0FE
:100660001BF900B1AC60304604B070BD0026F5E760
:10067000438806EB9313DAB2D11C05EB810015F821
:10068000211001F00404CEE702880233C2F3831282
:100690001344F0E7BDF80430C3F38313360C1C4455
:1006A000DCE700BFF0030020040800208368D3F8D3
:1006B00054349B0703D4044A022103F0A1BB002257
:1006C000114604F039BF00BFC0A600002DE9F0417B
:1006D0000F4C104D52F8046C2D1B2D0907460FD0FE
:1006E00004EB051502E01034A54209D0A16830469C
:1006F00009F0D8FD0028F6D1E3685871BDE8F08113
:1007000033463846044ABDE8F041022103F078BB85
:1007100040C5000070C50000D4A600002DE9F041DE
:10072000104C114D52F8046C2D1B2D09074610D0AA
:1007300004EB051502E01034A5420AD0A16830464A
:1007400009F0B0FD0028F6D1E36801225A71BDE836
:10075000F08133463846054ABDE8F041022103F0F6
:100760004FBB00BF40C5000070C50000D4A600000C
:10077000104A30B4104DA2EB050C00230F4ACB6099
:100780005FEADC0C4B608A6011D00D4C02E0013353
:100790009C4508D034F823209042F8D155F83330E6
:1007A0000B6030BC7047002330BC0B607047634661
:1007B000F6E700BF40C5000058C40000C4AA00000E
:1007C000D40100202DE9F04FCB68404EDFF828918E
:1007D0005B79A6EB090685B08B468046F608002BB0
:1007E0006FD03B4A3B4B0821404603F009FB3A4A95
:1007F0000821404603F004FB86B3384DDFF8FCA027
:10080000B70000240023EA5A94423ED004339F42AA
:10081000F9D1D446002335F82320A24245D0013334
:100820009E42F8D1002150468E46002335F8232001
:10083000944216D001339E42F8D18E45CDE900C0D6
:10084000274A4FF0000304F1010413D9254902910E
:100850004046082103F0D4FAA642D3D105B0BDE842
:10086000F08F8E45CDE900C059F833301C4A04F1B1
:100870000104EBD81C4902914046082103F0C0FA5C
:10088000B442BFD105B0BDE8F08FDBF80C201749AA
:100890005958137903EB4302072393400B40D3408D
:1008A000DBB2134A52F823C0B4E709EBC30393F851
:1008B00006E00F4B7146032928BF032153F821009E
:1008C000B3E70C4A022103F09BFA8AE740C5000017
:1008D00014A7000008A7000034A70000D4010020DE
:1008E00074A700008CA70000ACBE000048020020E6
:1008F000D4AA0000F4A6000058C40000ECA6000032
:100900008C461346C1686246FFF75CBF2DE9F0478D
:10091000124C134D52F8049C2D1B2D09074615D07F
:100920001646884604EB051502E01034A5420DD0AA
:10093000A168484609F0B6FC0028F6D13346424685
:1009400021463846BDE8F047FFF73CBF4B463846E6
:10095000044ABDE8F047022103F052BA40C5000046
:1009600070C50000D4A6000002B970472DE9F04F11
:100970001F46CB687C4993F804B085B00646904684
:100980003868072209F0A8FC00286BD1B8F1010FE4
:1009900000F0DC80754D044655F8041B78680A2287
:1009A00009F09AFC58B10134052CF5D17B68704AE6
:1009B0000221304605B0BDE8F04F03F021BAE3B2A2
:1009C000B8F1020F019340F0BE806A4D6A4B5B1B89
:1009D000DB0844D00BEB4B0B04FA0BF405EBC3091B
:1009E00007233046654FDFF8A481DFF898A126463B
:1009F00003FA0BFB019C0CE02B68019002210835E7
:100A000003F0FEF9A945019807F1040708F104086D
:100A100025D0AB79A3425246EED33A6882EA060368
:100A200003EA0B035340C3F3C202C3F382118A42A9
:100A300038BF0A4603F007018A423B6038BF0A46C6
:100A4000C3F34223934205F1080538BF1346A94575
:100A5000A8F8023007F1040708F10408D9D105B05D
:100A6000BDE8F08F46493868082209F035FC0028B7
:100A700076D1B8F1010F044670D04FF00109019012
:100A8000C145ECD20BEB4B0B04FA0BF3039309F1CA
:100A90008043013B374C384D07EB830707232D1B61
:100AA00003FA0BF3ED08029357F804AF1DB34FF0B0
:100AB000000B03E00BF1010B5D451AD0202254F826
:100AC0003B00514609F008FC04EBCB020028F1D1B1
:100AD0009179019B994215D213682A4A0221304626
:100AE00003F08EF909F10109C845DDD105B0BDE873
:100AF000F08FD7F800A0244A53460221304603F075
:100B00007FF9EFE71D4B039A53F82B00029B1F4917
:100B100042401A40194B4240C2F3821043F82B2046
:100B2000C2F3C203834238BF034602F00700834288
:100B3000C2F3422238BF034601EB8B019A4238BF11
:100B40001A464A80CEE74FF0020999E7104A02217F
:100B5000304605B0BDE8F04F03F052B9019034E7DC
:100B60003B680C4A24E700BF90A70000D4AA00000D
:100B700008A8000058C4000040C50000480200203A
:100B8000B0A70000D0A70000F4A70000D401002007
:100B900098A70000B8A700008C461346C1686246BB
:100BA000FFF7E2BE2DE9F047124C134D52F8049CBA
:100BB0002D1B2D09074615D01646884604EB051552
:100BC00002E01034A5420DD0A168484609F06AFB46
:100BD0000028F6D13346424621463846BDE8F04764
:100BE000FFF7C2BE4B463846044ABDE8F047022133
:100BF00003F006B940C5000070C50000D4A600008F
:100C00002DE9F84F1F4B204800221A7006F090FC87
:100C1000824610B15046BDE8F88FDFF880801B4E49
:100C20001B48A6EB080606F0EFFEF608F2D0DFF848
:100C300068B0554600273C4608EBC509A5424FF071
:100C4000140208D058F83410D9F8000009F044FB19
:100C50000028C8BF01370134A642EFD12BF8257018
:100C60000135AE42E6D10B4B0B4A03EB8606002161
:100C700043F8041BB342518002F10402F8D15046FC
:100C8000BDE8F88FF003002070C5000040C50000EB
:100C9000B8AA000048020020D401002058C4000077
:100CA00030B499B10D490E4D491BC90813D00D4CF4
:100CB000002302E0013399420AD034F82320824213
:100CC000F8D1184655F8300030BC7047044DF9E7AC
:100CD000002030BC70470846F6E700BF40C5000062
:100CE00058C40000D4010020094B013903EBC000B7
:100CF00003290BD8DFE801F004020806042070473E
:100D00000220704740797047007970470020704793
:100D100058C40000704700BF2DE9F0479B4CD4E950
:100D200001239A4284B064D00023C4F81834BFF37E
:100D30004F8FA568EAB2D31C04EB830114F823306B
:100D4000580718D566680B7803F00303012B46D0CB
:100D5000022B03D14B88023505EB9315EAB2D4F888
:100D60001804D31C04EB830128B9AE423DD914F812
:100D700023305B07E7D404EB82026B1CDBB2D26842
:100D800004EB830302F00301DB680229CDE90123B0
:100D900005F1020731D0012900F0AA80D4F81054DF
:100DA0003DB12B6828469B689847EB681D68002D6D
:100DB000F7D1774B5B88012B09D97648764B774979
:100DC000C01AC008000440F0020000F043FAD4E961
:100DD0000130C01A18BF012004B0BDE8F0870B88AD
:100DE0000235C3F383131D44B8E7A66004B0BDE821
:100DF000F087002004B0BDE8F087BDF806306848F1
:100E00009DF80460C3F389194D46502D28BF502525
:100E100005F1080165F38F13C1F30901ADF8063040
:100E200006F088FBC6F3C20680460028B6D006F05E
:100E3000E9FB0023082201A9404606F013FCFB430E
:100E4000DBB20133B5EB830F4FEA830240F28F80B0
:100E5000F9B25FFA82FA033104EB810140460823BC
:100E6000A5EB0A0506F0FEFBEDB20AF108034D49B9
:100E700003F0FC032A46404606F0F4FB09F103099F
:100E800007EB9907D4F81834002B7AD1D4F8105412
:100E900005B3DFF814A14FF00709EB685A79B2B136
:100EA0001A7902EB4201BDF808205AF8220009FA2B
:100EB00001F2052E02EA000208BF0326CA4096424C
:100EC00005D82B6828461B6841469847EB681D6883
:100ED000002DE2D1404606F099FB002001F074F9A4
:100EE000D4F8183403B9A760002001F075F96EE753
:100EF000BDF804602A48C6F38313062B28BF0623D7
:100F000063F38916023303F00F018900ADF8046022
:100F100006F010FBC6F3C206804600283FF43EAF41
:100F200006F070FB0023082201A9404606F09AFB58
:100F3000BDF8043013F4707FA4D06FF00109A9EB61
:100F400005090825F9B203312B46042204EB81017F
:100F5000404606F087FBBDF804300137C3F3831326
:100F600009EB0702934205F10405EBD88AE7F9B2D1
:100F700003312A4604EB81010823404606F072FB48
:100F80007CE7404606F042FB21E700BFF00300206B
:100F9000E801002080C4000058C4000028A8000018
:100FA00070C50000FC030020480200202DE9F04736
:100FB000DFF8ECA00546002098460F46914601F068
:100FC00003F9DAF80830DAF8046003F580739B1B44
:100FD000052B61D80AF21C440121204601F02CFCAB
:100FE000FFF7FEFA0146204601F026FCDAE901236C
:100FF00003F580739B1A052BEED9D3B20333063267
:1010000040F2051100204AF82310CAF8042001F02C
:10101000E3F8B31CDBB20AEB8303089AC3F80C9025
:10102000F31CDBB20AEB83031C48C3F80C80331DAE
:10103000DBB20AEB83030021DA60731DDBB20AEB3B
:101040008303099ADA6001F0D5FB80F310031B04D7
:1010500043EA1543ED00721C05F0380545F4807530
:10106000D2B2F6B245F001050AEB8202033645EA38
:101070008725D3604AF826509AF800301BB9FFF74D
:1010800049FEBDE8F087FFF747FE0028F7D0FFF7DD
:1010900043FE0028F7D1F2E73246AEE70C08002005
:1010A000F00300202DE9F047DFF8DCA00546002022
:1010B00098460F46914601F087F8DAF80830DAF8DA
:1010C000046003F580739B1B042B58D80AF21C4460
:1010D0000121204601F0B0FBFFF782FA01462046CD
:1010E00001F0AAFBDAE9012303F580739B1A042BB4
:1010F000EED9D3B203330532C52100204AF82310BC
:10110000CAF8042001F068F8B31CDBB20AEB8303D1
:10111000089AC3F80C90F31CDBB20AEB830300219E
:10112000C3F80C80331DDBB20AEB83031548DA6089
:1011300001F060FB80F31003721CE90001F038013C
:10114000D2B2F6B21B0441F0C1010AEB82020336AF
:1011500043EA154341EA8727D3604AF826709AF894
:1011600000301BB9FFF7D6FDBDE8F087FFF7D4FDCF
:101170000028F7D0FFF7D0FD0028F7D1F2E732467C
:10118000B7E700BF0C080020F00300202DE9F8436A
:10119000DFF8BC90054600200F46904601F014F899
:1011A000D9E9016303F580739B1B022B4CD809F22C
:1011B0001C440121204601F03FFBFFF711FA0146D4
:1011C000204601F039FBD9E9012303F580739B1A0E
:1011D000022BEED9D3B2033303324521002049F864
:1011E0002310C9F8042000F0F7FFB31CDBB209EBB1
:1011F00083030021C3F80C80144801F0FBFA80F34C
:101200001003721CE90001F03801D2B2F6B21B04DF
:1012100041F0410109EB8202033643EA154341EAFA
:101220008727D36049F8267099F800301BB9FFF77B
:1012300071FDBDE8F883FFF76FFD0028F7D0FFF7D9
:101240006BFD0028F7D1F2E73246C3E70C08002017
:10125000F00300202DE9F041294C06460020884685
:1012600000F0B2FFD4E9017303F58073DB1B012B9F
:1012700044D804F21C450121284601F0DDFAFFF7AD
:10128000AFF90146284601F0D7FAD4E9012303F566
:1012900080739B1A012BEED9D3B20333023205219E
:1012A000002044F82310626000F096FF00211548EA
:1012B00001F0A0FA80F310037A1CF10001F038016C
:1012C000D2B2FFB21B0441F0010104EB82020337EA
:1012D00043EA164341EA8821D36044F82710237873
:1012E0001BB9FFF717FDBDE8F081FFF715FD0028DA
:1012F000F7D0FFF711FD0028F7D1F2E73A46CBE728
:10130000F00300200C0800202DE9F047324ED6F8FB
:1013100010440546002074B1234601E01B6853B118
:10132000DB681A798242F9D101300A28F3D14FF0F3
:10133000FF30BDE8F087EB681871D6F81034002B49
:1013400045D0DB681A68EB681A60D6F81034DB68A1
:101350001D60224B224AA3EB020C5FEADC0CE8D0B2
:10136000204C214F02F1070E4FF0070A0022EE68D1
:101370001EF8323096F80490D4F800808B4209EBC6
:10138000490928BF0B4603FA09F383EA08030AFA5E
:1013900009F903EA090383EA0803C3F3C208C3F3A4
:1013A0008219C84538BFC84603F00709C84538BF89
:1013B000C846C3F34229C84538BFC84627F822802B
:1013C0000132624544F8043BD1D1BDE8F087C6F84C
:1013D0001054EA681360BCE7F003002040C5000029
:1013E00058C4000048020020D601002038B5084B40
:1013F000D3F8104401251D704CB1E3685D7123687A
:1014000020465B689847E3681C68002CF5D138BD1E
:10141000F003002030B5C38885B004460D4623BBD9
:10142000237A052B1FD0627A82B9144AA08852F819
:10143000232003920021FFF733FC039A104903464F
:10144000284605B0BDE8304004F09ABB1946A08894
:10145000FFF74AFC0B4B0C4953F82020284604F0B8
:101460008FFB237AE1E705B030BD08490091084AB7
:101470000849284604F084FBD2E700BFECAC00002A
:1014800070AC0000C8AC00006CAC000064AC0000A4
:1014900044AC00004CAC00002DE9F04385B01D4683
:1014A0000C9C002394F80C90237380460E4617463C
:1014B00021462846FFF7AEFF062F09D8DFE807F0E0
:1014C000042E343B444F1F004146204604F058FB95
:1014D0002B7A052B05D06B7A5BB92749204604F09F
:1014E0004FFB204604F040FB84F80C9005B0BDE8AB
:1014F000F083224A2249204604F042FBEDE773695B
:10150000039333690293F3680193B3680093D6E9B8
:1015100000234146204604F033FBD9E732684146B8
:10152000204604F02DFBD3E7D6E9002341462046B0
:1015300004F026FBCCE7B3680093D6E900234146CC
:10154000204604F01DFBC3E7F3680193B3680093E2
:10155000D6E900234146204604F012FBB8E7336980
:101560000293F3680193B3680093D6E900234146E0
:10157000204604F005FBABE798A6000064AC000031
:101580006CAC0000082900D970472DE9F04F1D46CA
:1015900083B000241B7B2C730E4607462946104659
:1015A00090460193DFF8D0B0DFF8D0A0FFF732FF0C
:1015B00005E03A5D013404F0E3FA082C09D0A642B4
:1015C00051462846F5D85946013404F0D9FA082C7A
:1015D000F5D12449DFF8A8B0234CDFF8A8A02846AD
:1015E00004F0CEFA4FF0000917E017F80910481C74
:1015F0007E294FF02E02C0B206D810F80A2012F051
:10160000970F14BF0A462E222146284609F10109E8
:1016100004F0B6FAB9F1080F0AD04E45E5D859469C
:10162000284609F1010904F0ABFAB9F1080FF4D129
:1016300098F80830052B02D098F809305BB90B49AF
:10164000284604F09DFA284604F08EFA019B2B737D
:1016500003B0BDE8F08F064A0649284604F090FA28
:10166000EDE700BF88AC00008CAC000098A600003D
:1016700064AC00006CAC000084AC00007CAC0000EA
:1016800078AC0000A9C200004FF0A042044B1B5CE4
:10169000D2F80405D840C04300F00100704700BFF5
:1016A00000AD0000044A115C01234FF0A0428B40C2
:1016B000C2F80C35704700BF00AD0000044A115C51
:1016C00001234FF0A0428B40C2F80835704700BF9D
:1016D00000AD00004FF0A04310B44FF480204FF451
:1016E00000344FF400214FF48012C3F80845C3F8CA
:1016F0000805C3F80815C3F808255DF8044B7047C2
:101700004FF0A04310B44FF480204FF400344FF456
:1017100000214FF48012C3F80C45C3F80C05C3F840
:101720000C15C3F80C255DF8044B7047074B4FF0C0
:10173000A041185CD1F804350122824022EA03005E
:101740001340C1F80805C1F80C35704700AD000022
:101750000D2809D00E2809D00F2809D010280CBF59
:1017600003204FF0FF307047002070470120704782
:1017700002207047C20710B41AD54FF0A0430322CD
:101780004FF40031C3F844274FF48024C3F84827AE
:10179000C3F84C27C3F85027C3F808154FF480123C
:1017A0004FF40021C3F80845C3F80815C3F808250D
:1017B00083070AD54FF0A0430C22C3F83427C3F89F
:1017C0003827C3F83C27C3F840275DF8044B70471F
:1017D00038B5174B1D783DB3164A1168C0B20023C7
:1017E0000C4604E00133AB4204F108041CD011F8AC
:1017F00033209042F6D106F0C7FC6378A3F10103D1
:10180000B3FA83F35B09834200D038BD0A4BD3E9B6
:1018100000231343F9D1094B094819680022BDE898
:101820003840490800F034BC00231B78FFDE00BFBD
:10183000A8080020C8080020B0080020AC0800203C
:10184000080000202DE9F84FDFF83C92DFF83CA2B9
:1018500099F80030002B39D0DFF83482874F00250B
:101860004FF0010BD8F8006016F8350006F08CFC3C
:1018700016F8354006EBC506610873787E5C14F0F7
:10188000010CA3F10103B3FA83F314BF320906F08C
:101890000F025B09042A00F2D680DFE802F06D5BDC
:1018A000301E0300834240F09380BCF1000F0CBF58
:1018B000F0230F2303EA06030CBF032630261E4342
:1018C0007E5499F8002001359542CBDBDAE90023FC
:1018D000134340F0CA80BDE8F88F834200F0B38024
:1018E000BCF1000F0CBFF0230F2303EA06030CBF6B
:1018F000042640261E437E5499F80020E3E78342E5
:1019000040F0A480BCF1000F0CBFF0230F2303EACA
:10191000060399F800200CBF032630261E437E5490
:10192000002AD3D0D8F800600023314603E0934268
:1019300001F10801C7D016F83300A04203F10103FA
:10194000F5D14B68002BBED020460121984799F86D
:101950000020B8E7834219BF002213462022022349
:10196000BCF1000F16BF1346F0220F22164033437E
:101970007B5499F80020A6E7834264D1BCF1000FA4
:1019800014BF0F23F02303EA060314BF1026012619
:101990001E4300207E5400F017FCA4F12003C4F184
:1019A00020022BFA02F20BFA03F31343DAF80020B9
:1019B0000BFA04F42243CAF80020DAF804200020CD
:1019C0001343CAF8043000F007FC99F800207AE7C6
:1019D000BCF1000F14BF0F23F0231E407E5499F872
:1019E00000609EB1D8F800000023024603E0B34235
:1019F00002F108020AD010F83310A14203F10103EA
:101A0000F5D1536813B1002120469847002000F01B
:101A1000DBFBA4F12003C4F120022BFA02F20BFA43
:101A200003F31343DAF800200BFA04F422EA040269
:101A3000CAF80020DAF80420002022EA0303CAF8DA
:101A4000043000F0C9FB99F800203CE7BCF1000F1E
:101A50000CBFF0230F2303EA06030CBF0126102658
:101A60001E437E5499F800202DE7054B0548196860
:101A70000022BDE8F84F490800F00ABBB808002072
:101A8000AC08002008000020A8080020B0080020B2
:101A9000C8080020092A3FD9F0B583B0144605468E
:101AA0000E4606F011FA88B3204B214A1E70214BD6
:101AB0001560002120481C60102208F063FA1F4BBB
:101AC00000200021741EC3E90001E4B236B31C4FAC
:101AD00005EBC404032602E0A5421FD01C469DF876
:101AE000063094F802C020788DF8046023F00703D4
:101AF0003A4601A98DF806308DF805C006F0EEF9DA
:101B0000A4F108030028E7D003B0F0BD06F088F97F
:101B10000028C9D003B0F0BD07207047094A0A4821
:101B2000002103B0BDE8F04000F09ABAA8080020F8
:101B3000C8080020AC080020B8080020B008002029
:101B4000D11700004518000038AD000070B5084DF1
:101B50002B785BB1074E00243368012113F8340061
:101B600006F0B0FA2B780134A342F5D8002070BDFE
:101B7000A8080020C808002000B585B00346002151
:101B800001AA44F20100CDE90111039300F004F829
:101B900005B05DF804FB00BF70B572B6FFF726FC18
:101BA000FFF7BAF80028FBD1194D6B88FBB9194B28
:101BB000D3F8F030DB070DD5174C184E00BE6B88FC
:101BC000012B07D9A01BC0080004154940F00200F2
:101BD000FFF740FBBFF34F8F0E49124BCA6802F468
:101BE000E0621343CB60BFF34F8F00BFFDE70A4CA9
:101BF0000A4E0D49A01BC008000440F00100FFF789
:101C000029FB044BD3F8F030DA07D8D5D6E700BF6C
:101C1000E801002000ED00E080C4000058C400008E
:101C200048AD00000400FA053CAD000030B48D68FA
:101C30008468C368CA68A54272EB03032CBF012005
:101C4000002030BC704700BF2DE9F04F2DED028B16
:101C500083B008EE100A00F0F3FB40B1B04AD2E9BD
:101C6000003113F1807341F10001C2E9003118EE37
:101C7000100A002100F000FCAA4D60B32B6853B39A
:101C8000A94B2C681B7823B31CB3A84800F004FCB4
:101C9000A34BA74A19685B684018D2E9001243F1C8
:101CA0000003884273EB020203D210F1807043F10B
:101CB0000003D4E902128842934180F06181B2F1BD
:101CC000FF3F08BFB1F1FF3F03D09A48214605F01E
:101CD00083FF00232B6018EE100A012100F0CCFBDB
:101CE000002840F02D81944801A900F041FD002812
:101CF0003AD0914C4FF0FF384FF0FF3909E033B341
:101D000001A9204600F066FD01A9204600F030FD43
:101D100050B30378012B11D0022BF0D1854E304601
:101D200005F06EFF30B1C0E90289304605F068FF6A
:101D30000028F8D17C4B01221A70E1E72B6841683A
:101D4000994200F0B6807B4805F064FFD8E741680F
:101D5000D1E90223B3F1FF3F08BFB2F1FF3FCFD07B
:101D6000744805F039FFCBE7724FDFF8C081DFF828
:101D7000B091384605F04AFF002852D0D0E902233E
:101D8000B3F1FF3F08BFB2F1FF3F00F08E8029683A
:101D900091B12968D1E9020182428B4145D22B6879
:101DA000D3E90223B3F1FF3F08BFB2F1FF3F03D0F5
:101DB0002968384605F010FF384605F021FF044633
:101DC00040465B4ED4E902BA00F066FBD9E9001345
:101DD0003268401843F100039042726873EB0202CC
:101DE00003D210F1807043F10003BBEB00006AEBFB
:101DF0000303012873F1000325DBB0F5350F4ED244
:101E00005A464FF496030021404600F093FA88B1F9
:101E10000D281CD0002338462B6005F0F7FE002863
:101E2000ACD12B68002B00F0A28003B0BDEC028B7C
:101E3000BDE8F08F2B68002B3ED02C6003B0BDECCA
:101E4000028BBDE8F08F0021404600F009FB364BC5
:101E50001B78002BDED0404600F01EFBD9F8003086
:101E6000D6E90012C018D9F8043043F100038842C3
:101E700073EB020203D210F1807043F10003D4E946
:101E80000212884293411CD2B2F1FF3F08BFB1F168
:101E9000FF3FBFD02146384605F09EFEBAE74046D8
:101EA00000F0FAFA254A0244ABE7384605F0A8FEEE
:101EB0005FE700232B6023E718EE100A00F008FA12
:101EC000BBE7002000F080F923692BB94FF0FF3207
:101ED0004FF0FF33C4E90223002000F07DF9D4E97C
:101EE00005309847002000F06FF92369A3B1D4E9C9
:101EF0000212B2F1FF3F08BFB1F1FF3F0CD05B18F7
:101F000042F10002A360E260002000F065F9214682
:101F1000384605F061FE7DE7002000F05DF979E7C5
:101F2000D008002040090020D80800203C000020F4
:101F3000380900207CAD000028000020FFFFB4001D
:101F40002748284E00F0A8FA274B1A685B688018CB
:101F5000D6E9001243F10003884273EB020203D278
:101F600010F1807043F10003C6E90003BBE618EEF0
:101F7000100A03B0BDEC028BBDE8F04F00F0ACB925
:101F8000002000F021F923692BB94FF0FF324FF008
:101F9000FF33C4E90223002000F01EF9D4E9053024
:101FA0009847002000F010F92369A3B1D4E9021288
:101FB000B2F1FF3F08BFB1F1FF3F0CD05B1842F117
:101FC0000002C4E90232002000F006F90748214669
:101FD00005F002FE7DE6002000F0FEF879E600BF85
:101FE0003C00002038090020D00800207CAD000013
:101FF00010B5134B13491C68134882B008235822AC
:10200000019400F05BFB044610B1204602B010BD05
:102010000E4A0F4801A900F0E9F804460028F4D15F
:102020000B48012100F002FA01231946094A084829
:1020300000F056F9084B012220461A7002B010BD7C
:1020400078AD0000DC08002028000020491C0000BA
:102050003C000020FFFF7F00D808002000000000A7
:102060006AB19FED097BA1F101010368B1FA81F129
:10207000490983ED027BC3E9041200207047072061
:10208000704700BFAFF30080FFFFFFFFFFFFFFFFC0
:1020900070B5044682B0002016460D4600F094F854
:1020A000D4E90223B3F1FF3F08BFB2F1FF3F05D0EF
:1020B000002000F091F8002002B070BD1C4800F034
:1020C000EBF91C4B1C4A19685B684018D2E90012F6
:1020D00043F10003884273EB020223D3281843F133
:1020E0000003C4E90203002000F076F82369A6612A
:1020F00003B12561114801A900F0F8FA034670B157
:1021000000250E481D705C6001A900F021FB00282D
:10211000D2D0074800F0C4F9284602B070BD0420B0
:1021200002B070BD10F1807043F10003D6E700BF2C
:102130003C000020D00800203809002028000020A2
:1021400010B5044682B0002000F03EF8D4E9022326
:10215000B3F1FF3F08BFB2F1FF3F1BD04FF0FF3399
:102160004FF0FF32C4E90223002000F035F80F4899
:1021700001A900F0BBFA034648B101220B481A70CE
:102180005C6001A900F0E4FA50B902B010BD04206F
:1021900002B010BD002000F01FF8002002B010BDFA
:1021A000034800F07DF9002002B010BD2800002097
:1021B0003C000020401A20F07F407047014800F0AA
:1021C0006BB900BF3C00002072B6024A13680133AD
:1021D0001360704744090020034A1368013B1360F1
:1021E00003B962B6704700BF4409002010B52F4CF8
:1021F000437944F823202E4C04EBC3031B79002BB6
:1022000041D103680A88C3F8082590F904308A7818
:10221000002B24DB03F16043520103F56143D2B28A
:1022200083F8002390F90430002B09DB21494FEAA1
:10223000531C012203F01F0302FA03F341F82C3070
:1022400043791D4A44F8330004EBC30153884FF02F
:10225000010C022B81F804C009D8002010BD1749D9
:1022600003F00F0352011944D2B20A76DAE7144B95
:1022700014481549C01AC008000440F00300FEF7D6
:10228000E9FF002010BD0C4B5B88012B01D8082012
:1022900010BD0B4B0B480D49C01AC008000440F09C
:1022A0000200FEF7D7FF082010BD00BF5009002034
:1022B0004809002000E100E0F0010020FCEC00E013
:1022C00058C4000090C40000ACAD000088AD000010
:1022D000036801221A607047036801225A60704740
:1022E00070B405684FF480348C40C5F80843056825
:1022F00001F1500CC5F848434FEA8C0C05681FFAF1
:102300008CFC002645F80C6083B055F80C50019504
:10231000019D056801F5A87122F07F4245F8212052
:102320000268C2F8444313B10368C3F8044303B01E
:1023300070BC70472DE9F0474FF4803622F07F479C
:1023400002688E40C2F848630268C2F808630268F7
:1023500002EB810C044601F15005D2F80405DCF8CB
:102360004025CCF84005AD00ADB2121A20684FF000
:10237000000840F8058082B04059009022F07F426A
:10238000012A00988A46994641D02268D2F804551D
:10239000C2F844637A1B22F07F42012A0AF5A87131
:1023A00025D0236843F821702068D0F804557B1BA2
:1023B000C9F1FF12013B02F57F4223F07F439A42AD
:1023C00011D343B1C0F8446323680020C3F8046309
:1023D00002B0BDE8F087013740F821702068D0F8DE
:1023E00004359D42EED00D2002B0BDE8F087236891
:1023F000013743F821700C4B4FF4806043F0010328
:1024000098472068D0F804359D42DBD0EBE7064AB8
:102410004FF4806042F001029047226842F8058044
:1024200052590192019AB0E7C0AD00000268022340
:10243000C2F8443311B10268C2F80433704700BFD8
:102440000368D3F8040100B97047002282B0C3F8D2
:102450000421D3F804310193019B012002B070479D
:1024600002684FF4803303FA01F1C2F8481303689D
:10247000C3F80813704700BF50318900036889B260
:10248000585800B9704700225A5082B05B580193E7
:10249000019B012002B070470368D3F80405704720
:1024A00090F90430002B09DB5A09054803F01F039B
:1024B0000121403201FA03F340F82230704700BF97
:1024C00000E100E0024A034B10681B68184700BF98
:1024D00048090020500900201EF0040F1CBFEFF334
:1024E00009800AE0EFF308800549064A884201D8CE
:1024F000904202D88D464FF00000034B1847000071
:102500000000012000E0002031250000BFF34F8FC4
:102510000549064BCA6802F4E0621343CB60BFF37F
:102520004F8F00BFFDE700BF00ED00E00400FA059B
:102530002DE9F04F83B08146FEF758FFFEF7ECFB24
:102540000028FBD1504BDFF86C819D6AB8F802304F
:10255000B9F1000F00F085804C4C4D4E002B48D156
:10256000494BA4EB060A4FEADA0A4FEA0A4ADB6A49
:102570004AF0010A474FDFF840B10024012602E08B
:1025800001341A2C12D006FA04F32B42F8D057F873
:102590002420002AF4D0B8F80230002BF0D059469D
:1025A00050460134FEF7F2FD1A2CECD12A060ED566
:1025B000B8F802302BB94846FFF7A8FF03B0BDE8D2
:1025C000F08F314B34495A6B5046FEF7DFFD2B0438
:1025D000F1D5B8F80230002BEDD02B4B2F499A6B78
:1025E0005046FEF7D3FD4846FFF790FF03B0BDE825
:1025F000F08FA4EB060A4FEADA0A4FEA0A4A4AF0D9
:10260000010AD9F8182026495046FEF7BFFDB8F850
:102610000230002BA4D0D9F80C300193D9F808303F
:102620000093D9E900231F495046FEF7BFFCB8F8D4
:102630000230002B94D0D9F81C300093D9E9042340
:1026400019495046FEF72EFD0F4BDB6A990791D5CD
:10265000B8F80230002B8DD014495046FEF7FAFD31
:1026600088E713B9094C0A4E7AE7084B084A104923
:10267000A3EB020A4FEADA0A4FEA0A4A4AF0010AD1
:102680005046FEF7E7FDDFE700ED00E000C5000083
:1026900058C40000E0B30000C4AE0000E4AE000087
:1026A000C8AD0000E0AD000018AE000074AE000040
:1026B00040AE000028020020B8AE000099B110B46E
:1026C000B2FBF3F403FB1424A4B244B9C0E9001430
:1026D00084608281C38120465DF8044B70470920E5
:1026E0005DF8044B70470E20704700BF10B483B0F4
:1026F00050E8013F1FFA83FCC489A4448489A4459F
:1027000028BFACEB040C0489A44502BFBFF32F8F94
:10271000002207E0CCEA030C40E801C4002CE7D11A
:102720004FF001028DF803200193019C9DF80320D6
:102730000C6032B1006810FA84F003B05DF8044B0D
:10274000704702F0FF03184603B05DF8044B704772
:102750000A884B889A4201D00020704750E8012F28
:10276000C2EA024240E80123002BF7D10120704762
:1027700010B483B050E8023F1FFAA3FCC488A445FC
:1027800002BFBFF32F8F00220EE0C489A4448489C6
:10279000A44528BFACEB040CC3EA0C4C40E802C4CF
:1027A000002CE7D14FF001028DF803200193019C2A
:1027B0009DF803200C6032B1006800EB144003B0B8
:1027C0005DF8044B704702F0FF03184603B05DF854
:1027D000044B70470A884B889A4201D0002070470A
:1027E00050E8022FC2EA224240E80223002BF7D130
:1027F00001207047034653E8000F0A4643E8002CC7
:102800009CF0000FF7D17047034653E8002F42EACF
:10281000010043E8000C9CF0000FF6D1704700BFA8
:10282000034653E8002F02EA010043E8000C9CF045
:10283000000FF6D1704700BF034653E8002F02EBAC
:10284000010043E8000C9CF0000FF6D1704700BF78
:10285000034653E8002FA2EB010043E8000C9CF074
:10286000000FF6D1704700BF0346012253E8000F66
:1028700040EA020143E8001C9CF0000FF6D17047CB
:102880000346012253E8001F41EA020043E8000C1E
:102890009CF0000FF6D170470346002253E8000F6A
:1028A00000EA020143E8001C9CF0000FF6D17047DB
:1028B0000346002253E8001F01EA020043E8000C2F
:1028C0009CF0000FF6D170472DE9F0478368D3F8EC
:1028D0005434C3F340059B0788B045D401293CD844
:1028E000254C264B264A1B1B9F081B2BA2FB0727A8
:1028F00030D9DFF894A006464FF06409A846236853
:10290000A268187919686368B4F818E0CDF800E097
:10291000511AD21A00EB8003C9B203EB8303CDE94D
:102920000602CDE9031209FB01FC9B00BCFBF2FC93
:10293000B3FBF2F3CDF808C00593CDF804806369CA
:10294000524608213046013501F05AFAAF4204F1EF
:102950001C04D4D808B0BDE8F0870A4A022108B0A8
:10296000BDE8F04701F04CBA0022114608B0BDE8BE
:10297000F04702F0E1BD00BF70C50000E0C50000F7
:102980002549922448B400005CB40000D0B110B4D2
:10299000D0E90112521A0468D2B2531E2160DBB290
:1029A00052B101680A6803F1FF3C541C0C601370BB
:1029B0005FFA8CF3FF2BF4D10368002018715DF8E7
:1029C000044B70470E20704738B504460020FFF7CF
:1029D000FBFBD4E900311A688A4215D9511E1960EF
:1029E0002168A36812F8012C208B0D68E4685B1B3A
:1029F00000FB02440A79DBB29A4200D20B7100203C
:102A0000FFF7EAFB204638BD00240020FFF7E4FB77
:102A1000204638BD38B5054600200C46FFF7D4FBEC
:102A20002A681368591C1160E9682A8B641AB4FB80
:102A3000F2F41C70BDE838400020FFF7CDBB00BFAA
:102A400030B18A68B2F8543443F02003A2F8543409
:102A5000704700BF10B543689C6860680368012137
:102A60009B689847A36810B903221A7010BD04220E
:102A70001A7010BD0068096807F014BC2DE9F04118
:102A8000054680684E4E82B000244FF40072214605
:102A900000F22A208DF8034007F074FA49492869AA
:102AA00003F06EF8286903F05FF84FF47A7846F087
:102AB00001066868076801AB0DF103013F69012257
:102AC000B847019B611CC3B19DF80320AB681B2A6A
:102AD00005D093F82A021B28EBD1522A1CD023449C
:102AE0008CB2092C83F82A22E3D9AB68002283F840
:102AF0002A22042002B0BDE8F0814FF6C010B04792
:102B0000019B002BD5D108F1FF371FFA87F8B8F1E8
:102B1000000FCED10D20EDE72344002083F82A02D8
:102B2000AE6896F82B325B2B43D106F22B2702239B
:102B300003E0B3F5007F90B237D017F8014F00EBF8
:102B40008002A4F130013B2C01EB420299B203F167
:102B50000103EED14A1C92B2B2F5007F25D001F2FA
:102B60002B2116FA81F1002403E0B2F5007F9CB21C
:102B70001BD211F8017B04EB8403013207EB430302
:102B800092B2303B002FF0D1FA2C28BFFA24B48245
:102B9000AB68FA288ABFFA2218831A83AB68002030
:102BA00083F82A0202B0BDE8F0810C2002B0BDE833
:102BB000F08186F82A020B2002B0BDE8F08100BF48
:102BC00050BA000038BA00002DE9F047074600234C
:102BD000844E3B6082B01846884614461D4605E088
:102BE000002304F8013B38680B2864D82378002BB5
:102BF00061D0F35C13F00802F2D1431C3B6048F84B
:102C000020402378002B6CD015464DB1AB4235D017
:102C10005C2B637813D00134002BE4D0002DF5D168
:102C20001D46272D37D1204607F04EFB611C02467A
:102C3000204607F08DF92378002BEFD1D3E7AB4284
:102C400000F08380302B4ED01A46782AE3D1A27848
:102C5000A2F130095FFA89F9B9F1090F00F2968003
:102C6000E278A2F13003DBB2092B7ED843EA0919DE
:102C70005FFA89F903214FF0040A51E0204607F07A
:102C800023FB611C0246204607F062F92578002DDF
:102C9000A9D0272DC7D05C2D14D0222DC3D0002D54
:102CA000ECD0735D1B071CD414F8015F002DF0D12C
:102CB00038680B289AD9002348F82030284602B0FB
:102CC000BDE8F087204607F0FFFA04F1010902464B
:102CD0004946204607F03CF965784C46002DD8D18E
:102CE00081E700257FE7A278A2F130095FFA89F930
:102CF000B9F1070FA9D8E378303BDBB2072B6DD8C9
:102D000043EAC9092379303BDBB2072B4FFA89F933
:102D100036D843EAC9095FFA89F904214FF0050A58
:102D200021442046019107F0CFFA0230A0EB0A02BD
:102D30000199204607F00CF9224602F8019B6378BE
:102D40001446002B7FF46AAF4DE7204607F0BCFA2B
:102D500004F1010902464946204607F0F9F8637874
:102D60004C46002B7FF45AAF3DE7A2F16103052BDF
:102D70002BD9A2F14103052B30D8373A42EA091981
:102D80005FFA89F903214FF0040AC9E7A2F1610152
:102D900005290FD9A2F1410105293FF63CAF373A89
:102DA0005FFA82F9E278A2F13003DBB2092B7FF6F9
:102DB0005DAFDAE7573A5FFA82F9E278A2F13003C1
:102DC000DBB2092B7FF652AFCFE7573A42EA091937
:102DD0005FFA89F903214FF0040AA1E702214FF0BD
:102DE000030A9DE7AAC20000F8B51E46D9B91A4CDD
:102DF0001A4B1B1BB2EBD30F4FEAD30514D29DB174
:102E0000174F04EBC50507EB820702E00834AC421C
:102E10000AD061683868096807F044FA0028F5D1DB
:102E200063683360F8BD10B900233360F8BD0178E2
:102E3000436849B1069910469847069B1B68002BCA
:102E4000F2D0069B3360F8BD110103EB02125B5810
:102E5000002BE9D03260F8BDB4C3000004C4000008
:102E6000AC0100202DE9F04F7E4D0B78EB5C89B072
:102E700013F0080301910746029200F0F1800B461F
:102E8000C1F10101C81813F8012FAA5C1607F9D483
:102E90008346DDE901239B1A0593D946B846019C78
:102EA000204607F011FAD8F80830B3F81EC0029B8C
:102EB000A0EB0900ACEB030B584573D9059ACDF88C
:102EC000009009F1FF33C4F101062344A6EB090A7F
:102ED000A2EB090E5A78A95C0AEB030406EB03097E
:102EE000090703F101030EEB030002D50A2A54D0AF
:102EF000A3468445EED8DDF80090019A09EB0B0358
:102F00000493D31803935C46D8F8100002F02CFE0B
:102F10002CB34FF0000B07ABCA46D8F80400019958
:102F200002680093D76851442246B8470799009B2E
:102F300029B1641A8B4412D009EB0B0AEDE7D8F8DB
:102F4000082011780329E8D0D2F854148906FBD55B
:102F5000B2F854146FF34511A2F85414DDE7039B43
:102F60001B78EB5C180763D5049C019B1C4406EBA3
:102F7000040914F8013FEB5C1B07F8D4D8F81000E3
:102F8000394902F0FDFD029B002B88D03749D8F863
:102F900010001A4602F0F4FD81E7CDE90339DDF8AF
:102FA0000090B1E74946CB464746002834D0019A05
:102FB00009F1FF3313444FF0000903E009F101095F
:102FC000484529D013F8012F0A2A01EB0904F5D14D
:102FD000386902F0C9FDB9F1000F15D04FF00008B3
:102FE0000DF11C0A5E467868019902683144D56883
:102FF00053464A46A8470799E9B1B9EB0109884405
:1030000002D00BEB0806EEE7631C174938699B46B4
:1030100002F0B6FD029BEBB901993869594402F000
:10302000AFFD1149386909B0BDE8F04F02F0A8BD05
:10303000DDF81090A2E7B8680378032BD3D0D0F85E
:1030400054349D06FBD5B0F854346FF34513A0F803
:103050005434C8E7054938691A4602F091FDDBE7A8
:103060009B4616E7AAC200009CBE000070B5000097
:103070000CB470B584B008AB816853F8045B01935D
:10308000D1F854345B07044602D591F822304BB98D
:10309000206901AA294602F033FE04B0BDE8704061
:1030A00002B0704702222231684606F043FFA3684F
:1030B0002E4A2F49002683F82260206902F060FD25
:1030C000206901AA294602F01BFE9DF80030002B62
:1030D0003FD0A26892F82210994212D0254802905F
:1030E00033218DF80C1003F12F006D218DF80D00A8
:1030F000ADF80E1082F822301D49206902AA02F0B4
:103100003FFD9DF80130002BC7D0A26892F8231034
:103110009942C2D01B205B218DF808008DF8091060
:10312000342003F12F018DF80A008DF80B106D206B
:1031300000218DF80C008DF80D1082F823300C4919
:10314000206902AA02F01CFD04B0BDE8704002B084
:103150007047A168054A81F822302069044902F0CD
:103160000FFD9DF80130002B97D0CEE71CBA000070
:103170006CAC00001B5B313B0CB430B585B008ABC8
:10318000816853F8045B0193D1F854345B0704461B
:1031900003D591F82230082B09D1206901AA2946CC
:1031A00002F0AEFD05B0BDE8304002B0704702222B
:1031B0002231684606F0BEFEA36893F82220082A52
:1031C0000BD03149314ACDE90212082283F822207E
:1031D0002F4920696A4402F0D3FC206901AA2946DC
:1031E00002F08EFD9DF80030002B3FD0A26892F8CF
:1031F0002210994212D02448029033218DF80C10ED
:1032000003F12F006D218DF80D00ADF80E1082F83E
:1032100022301F49206902AA02F0B2FC9DF8013059
:10322000002BBFD0A26892F823109942BAD01B207D
:103230005B218DF808008DF80910342003F12F016F
:103240008DF80A008DF80B106D2000218DF80C0010
:103250008DF80D1082F823300D49206902AA02F082
:103260008FFC05B0BDE8304002B07047A168094A44
:1032700081F822302069064902F082FC9DF8013075
:10328000002B8FD0CEE700BF1B5B313B33376D0087
:103290006CAC00001CBA00002DE9F04F814687B0ED
:1032A000524807F011F80546514807F00DF8D9F8D3
:1032B0000830504A5B6800922D1A4F4A4846082150
:1032C000FFF75AFFD9F808305868ADB2002800F06F
:1032D0008A8006F0F9FF84B2464806F0F5FFD9F877
:1032E00008309968204482B211B14846FFF7BAFD10
:1032F000424A00214846FFF7BBFE3D4806F0E4FF86
:10330000841C2C4439493E4A0091A4B2234608212A
:103310004846FFF731FFE21C3A4992B24846FFF7B0
:10332000A1FDD9F80830D3F80C80B8F1000F4FD0C8
:1033300000252E462F460EE0A047029802ACB8B1F9
:1033400006F0C2FFB84205D92068002843D006F035
:10335000BBFF87B2103598F80020D8F804403046FB
:1033600002A90136002AE7D160592C440028E7D190
:10337000012E2DD0244ADFF888B00021484607F1FD
:10338000020AFFF775FE00251FFA8AFA12E0A0472D
:10339000029E02ACE6B108215A46484653460096C2
:1033A000FFF7EAFE61687A1D92B24846A9B1FFF7BD
:1033B00059FD013598F80030D8F804402A0102A9D7
:1033C0002846002BE3D1A65804EB0514002EE2D1C9
:1033D00007B0BDE8F08F0746BCE70C49D9F81000EC
:1033E00002F0CEFBE5E7044676E700BF58BA0000DE
:1033F000C8BB000040BA000058B7000078B5000014
:1034000084B500008CB50000A0B500009CBE000093
:10341000022910B5044604D18368D3F854349B07BD
:103420000BD42069074A084902F0AAFB2069074A21
:103430000549BDE8104002F0A3BBBDE81040FFF70E
:103440002BBF00BF28BA00006CAC000020BA0000FF
:10345000F8B505460068AC6800283BD006F034FF9C
:10346000C3B21846218D84F82030E38C0144034414
:10347000E08BB1FBF0FE00FB1E11B3FBF0FC89B248
:1034800000FB1C339BB24A1C1FFA8EFE1FFA8CFCF9
:1034900090B20EF101070CF101065A1CBFB2B6B290
:1034A00092B29942A08227836683E28214D0B74207
:1034B00016D390421FD8121A92B21AB9AB68DA8C9E
:1034C0001A85F8BD1149286902F05AFBAB68DA8CFD
:1034D0001A85F6E70346C5E7E645F2D0B742E8D2DB
:1034E000ACEB0E0228690A4992B202F049FBA08AAD
:1034F000E28A9042DFD9821A92B20649286902F024
:103500003FFBAB68DA8C1A85DBE700BF70B50000C3
:10351000B0B50000B8B5000070B505460068AC68ED
:10352000002842D006F0D0FE5FFA80FEF4466046E6
:103530000EF1010EE28C238DE68B84F820C003444B
:103540001118B3FBF6F2B1FBF6F006FB123306FBE3
:103550001011013101339BB2E182511C013089B25B
:103560007345A3826083218323D0012907D915499C
:10357000286992B202F004FBA38A94F820C09C450B
:103580001FFA8CF207D3D21A013292B2A2B9AB68F9
:1035900000221A8570BD013B9A1A92B2002AF6D019
:1035A0000949286902F0ECFAF1E784464FF0010E70
:1035B000C0E70129D9D170BD0449286902F0E0FAB9
:1035C000E5E700BFC0B50000B8B5000070B5000069
:1035D00070B586B0002300220026CDE90223044600
:1035E0008368ADF8106000295AD1D3F85034002B0D
:1035F00054D00D46FFF790FFA36802A9D3F85004FA
:1036000001912B460A2204F061F8A368039AC3F8DB
:103610005024A3680199D3F85004DD8C002800F0F1
:10362000828000230A2204F051F8A168BDF810201E
:10363000D1F850040A2301322A3104F047F8BDF8CA
:103640001030A2681385A2689D42D38452D8A36823
:10365000464A20462A330821FFF78EFDA2682068DB
:10366000158D00283DD006F02FFEA268D38B28448C
:10367000B0FBF3F503FB150060B12068D58C20B1D9
:1036800006F022FEA368DB8B0544B5FBF3F203FBD7
:1036900012531BB93649206902F072FA06B070BDA8
:1036A000D3F85014D3F84C249142F7D0D3F84834CF
:1036B000002BF3D0FFF730FFA368D3F85004F8B124
:1036C00002A933460A22019104F000F8A368029A85
:1036D000C3F85024A368BDF81050D3F850040199E2
:1036E0009FE7D38BB5FBF3F103FB1155002DD1D030
:1036F000D58CCAE71F4A1D49206902F041FAA6E7A6
:1037000003F12A0006F0E0FDA36885B2D3F848244F
:10371000C3F85024F5B9A36883F82A52A36802A914
:10372000D3F850047DE703F22A2006F0CDFD50B90E
:10373000A36883F82A00A0682A3006F0C5FD83B28A
:10374000ADF810307DE7A06800F22A212A3006F09B
:10375000B3FDF0E7A06800F12A0100F22A2006F08C
:10376000ABFDA36802A9D3F850045AE76CAC000083
:103770009CBE000014BA00002DE9F0410546006827
:10378000AC68002877D006F09FFDC0B2024684F8EE
:103790002000238DE08C13441044E28BB3FBF2F63F
:1037A00002FB16330133B6B2A382B0FBF2F8731CEE
:1037B00002FB18001FFA88F82383013008F1010387
:1037C000E0826383AA682868178D00284AD006F033
:1037D0007BFDAA68D38B3844B0FBF3F703FB1700DB
:1037E00098B92649286902F0CBF946451DD0628B6D
:1037F000238BD21A92B262BBA38AE28A934220D868
:10380000D21A92B2BAB9BDE8F0812868D78C20B13B
:1038100006F05AFDAB68DB8B0744B7FBF3F203FB02
:103820001273002BDDD04645E1D1E28AA38AD21A79
:1038300092B2002AE7D028691149BDE8F04102F0B0
:103840009FB99A1A28690F49BDE8F04192B202F077
:1038500097B90D49286902F093F9A38AE28A934245
:10386000CED9EEE7D38BB7FBF3F103FB1177002F33
:10387000B7D0D78CD1E7024689E700BF9CBE0000D5
:10388000B8B5000070B50000C0B50000F8B5836899
:103890001546DA8C04465019B0F5007F00DA05B9F8
:1038A000F8BD0F46198D521A481996B22A312A309E
:1038B00019441844721C06F04BFBA068038D2A3390
:1038C0002A463946184406F043FBA0682A3006F021
:1038D000FBFCA368D884A268138D2A3313442046C6
:1038E0001B4A0821FFF748FCA3681A8D15441D8563
:1038F000A2682068158D08B306F0E6FCA268D38B99
:103900002844B0FBF3F503FB150060B12068D58CAB
:1039100020B106F0D9FCA368DB8B0544B5FBF3F2BC
:1039200003FB12531BB90B49206902F029F9002E41
:10393000B6D02046BDE8F840FFF71EBFD38BB5FBDD
:10394000F3F103FB1155002DEDD0D58CE6E700BF58
:103950006CAC00009CBE000070B583680446DD8C32
:10396000188D2D1AADB205B970BD00F12B012A30AA
:10397000194418442A4606F0EBFAA268D38C013B9E
:10398000D3842068A668002839D006F09DFCC0B218
:103990000246338DF18B86F82000F08C13441044DE
:1039A000B3FBF1F201FB1233013392B2B382B0FBED
:1039B000F1F301FB13009BB2511C013031839A4299
:1039C00003F10101F08271831BD02069194A1A4961
:1039D00002F0D6F82069194A174902F0D1F8A06818
:1039E000154A038D2A33082103442046FFF7C4FB00
:1039F0002069134A1049BDE8704002F0C1B8024680
:103A0000C7E7A1680C4A0B8D2A330B4420460821D6
:103A1000FFF7B2FB0B4A0849206902F0B1F86A1EB1
:103A200092B2002AA0D020690749BDE8704002F098
:103A3000A7B800BF18BA00006CAC000014BA0000B0
:103A400030BA00002CBA0000B8B500002DE9F041F2
:103A500083680446D3F85454188D0F46D98CC5F3A7
:103A600000080E1A15F00105B6B23AD1B1F5FF7F84
:103A700035D8002E40F0D380034483F82A70A26822
:103A80008449D38C01339BB2D38413443A4683F8E0
:103A90002A60206902F074F8A268138D013313853F
:103AA000A6682068358D002861D006F00DFCA66858
:103AB000F38B2844B0FBF3F503FB1500002865D019
:103AC0002068F58C002859D006F0FEFBA668F38B21
:103AD0002844B0FBF3F503FB1500002865D0BDE8D2
:103AE000F081B1F5FF7F57D9002EF8D0034483F859
:103AF0002A702068A768002855D006F0E5FBC0B200
:103B000002463B8DF98B87F82000F88C1344104453
:103B1000B3FBF1F201FB1233013392B2BB82B0FB73
:103B2000F1F301FB13009BB2511C013039839A421F
:103B300003F10101F882798300F08C802069564AF4
:103B4000564902F01DF8A068544A038D2A330344F5
:103B500008212046FFF710FB2069514A4F4902F027
:103B60000FF850492069012202F00AF894E7F38B1C
:103B7000B5FBF3F203FB125545B1F58CB5FBF3F23F
:103B800003FB1252002AAAD1104617E020694649C9
:103B9000BDE8F04101F0F4BF034483F82A70002E21
:103BA0003FF46DAFA5E70246ABE7206800286ED072
:103BB00006F08AFBF38BF58CC0B20246318D86F895
:103BC000200015440A44B2FBF3F103FB1122013239
:103BD000013189B2B282B5FBF3F203FB125593B205
:103BE0005A1A0135013392B231837383F582002A68
:103BF00048D12D49206901F0C3FF728B338BD21A53
:103C000092B2002A39D1B28A013A92B2002A3FF424
:103C100066AF20692349BDE8F04101F0B1BF00F172
:103C20002A012B3019441844324606F091F9A36852
:103C30001A8D134483F82A70A268D38C01339BB287
:103C4000D384134483F82A802068A76800287FF46F
:103C500054AFA8E7A268138D2A33134408210F4AF2
:103C60002046751BFFF788FAAAB2002A3FF414AF6A
:103C70000E49206901F084FF0EE70D49206901F02B
:103C80007FFFC0E70B49206901F07AFFB1E7F58CAF
:103C9000024693E78CAC000018BA00006CAC000040
:103CA00030BA000070B500009CBE0000B8B500003E
:103CB000C0B50000B0B500002DE9F0411F46C36853
:103CC0009DF818805B689860044640680368164653
:103CD0001D68304A2346A847054610B12846BDE86E
:103CE000F081606903F024FC05460028F6D1A36842
:103CF000C3F84804A368C3F84C044FF48B62294608
:103D0000A06806F03FF9A268B2F8543443F02003EB
:103D1000A2F85434A368B3F8542466F38202A3F8DB
:103D20005424A1681C4AB1F8543443F00803A1F8A4
:103D30005434A368194901201870A3684FF0500C3F
:103D4000A3F81EC0A368891A1820C90898830FD049
:103D5000134800EB81035668366840F8046B8342D1
:103D600002F10802F7D10F4B0D48042206F04AF980
:103D7000002FB3D0E0684146FDF7C6FA002806DB05
:103D8000E368DB6801225A712846BDE8F08104250A
:103D9000A4E700BF412A0000B4C3000004C400002F
:103DA000AC010020752A000042B32DE9F04306461D
:103DB00083B088461546002789467068046801ABC1
:103DC000E4682A464946A047019B2BB1ED1A1F44DF
:103DD00011D008EB0709F0E7B4682378032BECD087
:103DE000D4F854349B06FBD5B4F854346FF3451320
:103DF000A4F85434E1E703B0BDE8F083704700BF96
:103E00000CB470B584B008AB044653F8046B8068FA
:103E10000193D0F854345B0704D590F822308B42DC
:103E20000D4609D1206901AA314601F069FF04B0AD
:103E3000BDE8704002B0704700F1220102226846DE
:103E400006F078F8A368002D6CD093F82220AA42DF
:103E500012D0384A029233228DF80C2005F12F023D
:103E60008DF80D206D22ADF80E2083F822503249D6
:103E7000206902AA01F084FE206901AA314601F0FE
:103E80003FFF9DF80030002B3FD0A26892F822102F
:103E9000994212D02748029033218DF80C1003F17B
:103EA0002F006D218DF80D00ADF80E1082F8223034
:103EB0002149206902AA01F063FE9DF80130002B20
:103EC000B5D0A26892F823109942B0D01B205B2194
:103ED0008DF808008DF80910342003F12F018DF8BA
:103EE0000A008DF80B106D2000218DF80C008DF864
:103EF0000D1082F823301049206902AA01F040FE1B
:103F000004B0BDE8704002B07047A1680B4A81F868
:103F100022302069084901F033FE9DF80130002B62
:103F200085D0CEE783F82250044A0349206901F086
:103F300027FEA1E71B5B313B6CAC00001CBA000004
:103F40002DE9F041C3685B6890B006468846186862
:103F5000002203A903F0DCFC002840F0AD80B8F19A
:103F6000000F76D1B4683068002800F0A98006F010
:103F7000ABF9C3B21846E28C84F82030238DE58B70
:103F800003441044B0FBF5F105FB11000131B3FB14
:103F9000F5F2618305FB1233511C89B201339BB2E8
:103FA00001300129A382E082218305D94A49306981
:103FB00092B201F0E5FDA38A012B05D95A1E4749AB
:103FC000306992B201F0DCFD454A4649306901F0A2
:103FD000D7FDB8F1000F0ED074E0022A4ED003983E
:103FE00003F014FBF3685B680022186803A903F070
:103FF0008FFC00283ED103980023082204A903F077
:1040000065FB9DF810308DF82580DDE9051003F083
:104010000302012ACDE90701DFD1C3F3C2038DF802
:104020002430BDF81030049D0398C3F38312C3F30A
:1040300083140AA99200082303F048FBC5F39525D1
:10404000336900932246284607AB0AA9FDF724FAF4
:10405000C5E7039803F0DAFAB268D2F844340133C2
:10406000C2F84434B468D4F8443403F00703012B95
:104070003FF479AF012010B0BDE8F081BDF81250D7
:10408000C3F3C2038DF82430C5F389150827082D22
:104090002C4628BF08243B46039822460AA903F071
:1040A00015FB2D1B336907AA21460AA82744FDF7F3
:1040B00069FA002DEBD192E7002010B0BDE8F08145
:1040C000034658E73046084A0221FFF799FE40466A
:1040D00010B0BDE8F08100BFC0B50000B8B5000069
:1040E00014BA00006CAC0000C8B5000043680121A0
:1040F0009868FFF725BF00BFF0B54468A56883B096
:10410000AB6801911F78042F01D103B0F0BD206886
:1041100001A903F091FB60B1FE1E18BF01263146D4
:104120002846FFF70DFF206801A903F085FB002852
:10413000F5D1019803F066FA032FE6D10021284655
:10414000FFF7FEFEE1E700BF2DE9F04F83468068F0
:10415000A9B0102100F25440FEF756FBDBF80830FE
:104160001B78022B0ED0DBF8100001F0FDFCDBF811
:1041700008006FF0100100F2544029B0BDE8F04F84
:10418000FEF74EBB4FF00009CDF83890DBF8040085
:1041900001680EAB0C6901220DF13701A0470E9B9F
:1041A000002B00F0E5809DF93730002BEEDB03F0AB
:1041B000C1FADBF808305C78012C05D0022C65D000
:1041C0004CB183F80190E1E79DF837205B2AF8D1E4
:1041D00002225A70DAE79DF837100D2908D00A2913
:1041E00006D0B3F8542464F38D12A3F854240CE0E1
:1041F000D3F8542412F47F5F00F09280D3F8542453
:10420000C2F38712914200F08B801B2900F2EC80F0
:104210001B2900F2988101A353F821F08D41000081
:10422000474500004745000047450000474500005E
:10423000474500004745000047450000D3480000BF
:10424000DB470000474500004745000047450000A8
:10425000474500004745000047450000474500002E
:10426000474500004745000047450000474500001E
:10427000474500004745000047450000474500000E
:104280004745000047450000D147000083F80190F2
:10429000DBF80840D4F85434180769D59DF8373056
:1042A000313B1B2B3FF672AF01A252F823F000BF47
:1042B000AF430000C7430000C7460000BB430000F7
:1042C0008D4100008D4100008D4100008D410000B6
:1042D0008D4100008D4100008D4100008D410000A6
:1042E0008D4100008D4100008D4100008D41000096
:1042F000E1460000EB460000F5460000654700007F
:104300008D410000BF4300008D410000B343000019
:104310008D4100008D4100008D410000CF43000021
:10432000B3F8542461F38D12A3F85424DBF8080089
:10433000C68C002E63D1C0F85064BE49DBF8100073
:1043400001F01EFCDBF8083002221A70DBF80820AE
:10435000002382F82A30DBF80810B74A0B85DBF817
:104360000800C384DBF8003003215846FFF748FDFE
:1043700000215846FFF7E4FD00283FF4F4AEDBF8D7
:104380000030AD4A03215846FFF73AFDDBF808300C
:10439000D3F8542412077FF5E6AE5846A64A2A33CE
:1043A0000821FEF7E9FE5846FFF7E6F9DBE60323AE
:1043B00063705846FFF7B0F8E8E603236370584689
:1043C000FFF746F8E2E603236370DBF80840D4F811
:1043D0005434B4F8542403F0010383F0010363F36D
:1043E0000002A4F85424D1E67F2940F0AC80DBF829
:1043F0000830D3F854341D077FF5C8AE6CE190F84F
:104400002A20002A3CD08D4D00244FF6FF7705E08E
:10441000BC4200F0B08491F82A201C46AA5C631CC0
:104420009BB2120700EB0301F2D4002C40F0C683CC
:10443000831906F1290C93F82930EB5C19078444A1
:104440001ED50CF10104A7B2624694B212F8013DE8
:10445000EB5C391B13F0080389B2F6D194450FD0F9
:10446000711A0144E41B81F82A30DBF80820D38C50
:104470002344D384DBF80830DA8C1A85DBF8080093
:104480002A3005F021FFDBF80830002587B204460A
:10449000C3F85054002F7CD0DBF80830D3F8480420
:1044A0001AAE48B12B460A22314603F00FF9BDF887
:1044B00070309F4200F07684A4B204F10B08082704
:1044C0000DE003F003F9DBF808301A94D3F84C043C
:1044D0000A222346314603F0C5F8013F5AD0DBF8E3
:1044E0001400414603F026F804460346002840F035
:1044F0003383DBF80820D2F84C54002DEDD0284649
:1045000031460A2203F0E2F8DBF808301B9AC3F8C0
:104510004C2421460A22304605F034FD23460A2267
:104520003146284603F09EF8284603F04DF8DBF8A4
:104530000850D5F84C0423460A2231460028C0D141
:10454000C5F84804C9E73D4B5B5C13F0970F3FF497
:104550001DAEDBF80830D3F854241407C2F3C000B2
:1045600000F1F483DA8CB2F5FF7F3FF60FAE1A8DBF
:104570009C1801321A8584F82A10DBF808301A8D4D
:10458000134483F82A00DBF80820D38C0133D3844A
:10459000FCE51AAE5846FEF75BFFDBF80820DBF8B7
:1045A0000000148D20B105F08FFEDBF808200444D4
:1045B000D38BB4FBF3F103FB1144002C40F0FB81DF
:1045C0002A32314611A8FEF7FFFA119B002B00F0AA
:1045D000BC82002840F08A83194D1A4B5B1BDB0814
:1045E00000F0F88105EBC3046B681A98196805F0B0
:1045F00059FE002840F0E781DBF808000021102276
:104600000430129105F0BEFC6B68DA6832B10FCB52
:10461000DBF80840043484E80F006B68D3F808A086
:10462000DFF82480DFF82490002335460393012728
:1046300000242EE09CBE00006CAC0000AAC200006A
:10464000B4C3000004C4000028B600002CB600006B
:10465000686805F027FE002800F041826868494636
:1046600005F020FE002800F03A8216AB00932246A7
:1046700012AB39465046FEF7B7FB621C0DD0129BB9
:10468000013453B11968686805F00CFE002800F089
:104690004C83119BBB424146DAD8DBF808301B69DA
:1046A000002B00F062830398119906EB8002091A2F
:1046B00058469847DBF80830B3F854246FF34102AA
:1046C000A3F854243EE603236370DBF80830D3F8E4
:1046D000543419077FF55AAD5846FFF73DF955E5B3
:1046E00001215846FEF774FF50E500215846FEF7B9
:1046F0006FFF4BE5DBF80000002800F0F98105F0C2
:10470000E3FDC3B21846228DE18B84F82030E38CA0
:1047100002440344B2FBF1F001FB102286B292B2D4
:10472000771CB3FBF1F001FB103380B29BB2551C38
:104730002783471CADB267839A4203F10107A58224
:10474000E78200F05382A94200F0D882A6490122F4
:10475000DBF8100001F014FADBF80820138D0133A8
:10476000138513E5DBF80000002800F0C38105F095
:10477000ABFDC5B22B461846013584F82030238D99
:10478000E68BE18C03440144B3FBF6F006FB1032E8
:10479000013292B2B1FBF6F7013006FB171380B27B
:1047A00001370133AA42A28220836783E38200F0AB
:1047B0001882012A00F0AE828C490122DBF8100039
:1047C00001F0DEF9DBF80820138D013B1385DDE4F1
:1047D000DBF8083001225A70D8E4DBF80800D0F882
:1047E00054341B077FF5D2ACC38CC3F5FF73013380
:1047F0009BB20493002B3FF4C9AC028D00F12A0157
:1048000000F22A2005F096FBDBF8083078481A8D74
:104810000B9013441AA983F82A92DBF808301A8DFA
:104820001A4492F82920845CC3F85094DBF80820DD
:1048300004F008030A9302F22A22C4F3C0030FA86B
:104840000793FEF7C1F91A98002800F0C98205F015
:104850003BFD1FFA80FACDE9109900270F9BCDF898
:1048600024B005973D4606970897BB46002B00F0FD
:10487000D180079A013A13449D4280F0CB8012AB5D
:104880000093002210AB29463846FEF7ADFA28AB5C
:104890004FF0010803EB850615E0196856F8380C4F
:1048A00005F000FD002800F0958212AB009308F19E
:1048B0000104424610AB29463846FEF795FA002C13
:1048C00000F09E82A046109B002BE6D1DDF824B0BC
:1048D0005CE4DBF80830D3F8542416077FF556ACB7
:1048E000DA8C002A3FF452AC188D00283FF44EAC0D
:1048F000121A00F12A0195B22930194418446A1C91
:1049000005F026FBDBF80820138D013B1385DBF84F
:104910000820D38C013BD384002D00F06382DBF8A8
:1049200010003449082201F02BF9DBF80000DBF815
:104930000860002800F0628205F0C6FCC4B221467F
:10494000328DF08BF38C86F820400A440B44B2FB86
:10495000F0F100FB11220132B282B3FBF0F200FB56
:10496000123389B2013392B2F3824B1C33839142EA
:1049700002F10103738300F05182DBF810001E4A3C
:104980001E4901F0FDF8DBF810001D4A1B4901F03B
:10499000F7F8DBF80820138D2A3358461344082112
:1049A000164AFEF7E9FB174A1449DBF8100001F03C
:1049B000E7F8FFF7EBBB1449DBF8100001F0E0F873
:1049C000DBF80820FCE5AC423FF416AE0835AC42FB
:1049D0007FF40AAE0D4900911A9B0D4A02215846F8
:1049E000FFF70EFAAEE400BF70B50000B8B50000E6
:1049F000AAC200008CAC000018BA00006CAC000029
:104A000014BA000030BA00009CBE000000B60000DE
:104A1000F8B500000A9B002B40F0948028AB03EB14
:104A2000850353F8380C002800F08C8005F04CFC0E
:104A30001FFA80FA28AB03EB8508CDF80C80DDF86F
:104A40001880002412AB0093224610AB294638464A
:104A5000FEF7CAF9109B661C002B00F0CC80196889
:104A6000039B524653F8380C05F036FCC0B9119B35
:104A700008F10108B3B1109B186838B105F024FCA7
:104A8000059B80B2834238BF03460593049BA3BBBA
:104A9000DDF840C0CDF844C0002E00F05C81A34694
:104AA0003446CFE7DDF840C0DCF80030ABB1184643
:104AB00005F00AFCDDF840C083B205931846049B5C
:104AC000A0EB0A00834206DD059B0894A3EB0A03D2
:104AD0009BB20493DEE70894DCE70590EFE7DBF890
:104AE0000820B2F8543443F00203A2F85434D4E559
:104AF000034608E6034601253FE616AB5A460093F7
:104B0000294611AB3846FEF76FF9DDE910C3D3F83B
:104B100000B0DCF800E0002306E01BF80110914231
:104B20000AD1B3F5803FB5D00AEB030198B21EF865
:104B300001200133002AF0D1049B834228BF0346A1
:104B40000493A7E74FF0000A74E7C049DBF81000B0
:104B500001F016F8FFF7F6BBDBF80830D3F848048D
:104B6000002800F00F8100230A22314602F0AEFD3A
:104B7000DBF808301B94D3F848040A22002331469E
:104B800002F070FDDBF8083000221B92D3F84824B5
:104B90001A92DA8CADF87020C3F8484431462046AA
:104BA00000230A2202F05EFDDBF80810CA8C2046C2
:104BB0002A3101320A2302F055FDEBE42A30721C3F
:104BC000121B011905F0C4F9DBF80820D38C1C1B5B
:104BD000D484DBF80830DA8C1A85DBF80800C68C40
:104BE00026E401287FF4E5ADFFF7D0BA86427FF4D2
:104BF000AAADFFF7CBBACDF818804FB1109B3BB1EF
:104C00000F9B079A0135ADB29A189542FFF42EAE6C
:104C1000069B5A46DDF824B0002B3FF4B7AA012BBF
:104C200000F05481DBF80830894EA3F82490AB00E3
:104C30000793089A5346B846AA461D46511C12AB24
:104C40000093039110AB51464046FEF7CDF8109B00
:104C50001968079BA0336B442A4653F8380C05F0BB
:104C60003BFB002840D1069B013B0693109B1F682D
:104C70003046002F00F0268105F026FB059B1844E6
:104C8000DBF8083084B2DB8B0993304605F01CFB5F
:104C90000890384605F018FBDDE90813DBF808E05A
:104CA0006C4ABEF824C0591AB1FBF4F189B2241A37
:104CB000BCFBF1F001FB10C189B20CF1010C3B46C9
:104CC000A4B2AEF824C0002940F0A380624A009745
:104CD000334607215846FFF793F8002C40F0EB804D
:104CE000069B002B00F0CC80039AA7E703465B4AA3
:104CF00002215846FFF784F8FFF724BB01225849E8
:104D0000DBF8100000F03CFFE28B002A3FF424ADFA
:104D100054491DE55449DBF8100000F031FFE28BE7
:104D2000002A3FF44FAD514948E5129CE36843B176
:104D3000DBF80830039703F1040C94E80F008CE8CB
:104D40000F00D4F808A00137043571E45846FEF787
:104D50007DFEFFF71BBA464A0998CDF8188004215A
:104D6000FFF74EF84FF0FF3B47E7424A0221584613
:104D7000FFF746F89EE4002380F82A30DBF80800AD
:104D8000FFF77EBBC3F84844DBF808300022C3F8C5
:104D90004C440023CDE91A23DBF80830DB8CADF856
:104DA0007030FBE6DBF808100A23D1F848047A1CBF
:104DB00001F22A2102F08AFCDBF8080000F22A2125
:104DC0002A3005F06FFADBF8083098B183F82A52E0
:104DD000FFF772BB109B9F68002F7FF411AF17E79E
:104DE000824638E5244A1B49DBF8100000F0C8FE73
:104DF000FFF7CCB983F82A02FFF7CCBB01469FE549
:104E0000DDF824B01A4A04215846FEF7F9FFFFF7EF
:104E1000BDB907215846FEF7F3FF5EE7DBF808202F
:104E2000138D2A33134458460A4A0821FEF7A4F981
:104E3000DBF810000749114A00F0A2FE0949DBF82F
:104E400010002A4600F09CFEFFF7A0B99CBE0000AF
:104E500080B600006CAC000084B6000014B6000000
:104E6000B0B50000B8B50000C0B5000070B50000D6
:104E700054B6000034B6000034BA000014BA000082
:104E8000DBF800305F4A58460321FEF7B9FFDBF834
:104E900008305D4A2A3308215846FEF76DF9584616
:104EA000FEF76AFC119B049A196858462944FEF7DC
:104EB000EDFCFFF76BB9DBF810005449224600F017
:104EC0005FFE0DE7DBF808309F8409E73B7883BB82
:104ED000119B186808B105F0F7F9824506D0119BBF
:104EE000049A196858465144FEF7D0FCDBF8084094
:104EF0000B99238DE21892F82A208A5C12F008029E
:104F000025D1D4F85434DF071BD5B4F8543462F3F8
:104F10000003A4F8543420215846FEF797FDDBF82F
:104F20000820B2F8543443F00103A2F85434FFF7D8
:104F30002DB912AB00932946384611ABFDF754FF4B
:104F4000C6E720215846FEF781FDFFF71FB9E28C26
:104F50009A427FF61BA9DBF8000018B105F0B4F9FE
:104F6000238DE28CE18B84F8200053FA80F3B3FBAD
:104F7000F1F501FB153352FA80F20133A382B2FB43
:104F8000F1F301FB132201336383ADB2531CE382BF
:104F90006B1C2383DBF80820138D01331385DBF8AA
:104FA0000000DBF8084008B105F08EF9238DE18B95
:104FB000E28C84F8200053FA80F352FA80F0B3FBBD
:104FC000F1F201FB12330133A382B0FBF1F301FBD9
:104FD0001300013392B26383431CE382AA4202F1BD
:104FE0000103238306D00A49DBF8100000F0C8FD56
:104FF000FFF7CCB80549DBF81000012200F0C0FD36
:10500000FFF7C4B88CB600006CAC000070B50000AF
:105010009CBE000001290AD0022904D18368D3F87C
:1050200054349B0703D4034A0221FEF7E9BEFEF77E
:1050300033B900BF34B60000F0B5012983B004468F
:1050400011D08368D3F85444A40743D4022946D826
:1050500054682A4913682A4ACDE900140221FEF750
:10506000CFFE03B0F0BD8568FDF708FD20BBA36847
:10507000244920699F8A1E8BFA2200F081FD206955
:105080002149FA2200F07CFD2046FDF7F7FC98B993
:10509000A3689A8AEA83A368D21B1B8BAB8392B264
:1050A0002ABB9A1B92B2002ADBD01849206903B0B0
:1050B000BDE8F04000F064BDA3685022DA83A36825
:1050C000134A182199832046042103B0BDE8F0401B
:1050D000FEF796BE03B0BDE8F040FEF7DDB85B68B2
:1050E0000C4A022103B0BDE8F040FEF789BE0A4930
:1050F000206900F045FDAB8BD3E700BF50A6000050
:10510000E8B6000070B50000B0B50000C0B5000002
:1051100090B60000CCB60000B8B5000030B583688A
:105120001B78012B83B045D10446406803680021F9
:105130009B689847054610B1284603B030BDA36868
:1051400093F82220082A0CD01C491D4ACDE90012F0
:10515000082283F822201B4920696A4600F010FDCE
:10516000A36893F82320012A0CD06D221649ADF8CC
:1051700004200122009183F82320124920696A4605
:1051800000F0FEFC2069114900F0FAFCA36802223D
:105190001A70A268002382F82A30A168094A0B8598
:1051A000A168CB84204623680321FEF729FE284608
:1051B00003B030BD0825284603B030BD1B5B313B32
:1051C00033376D006CAC00001B5B3430F4B600006C
:1051D0008368D3F85424C2F3400C920708D4012901
:1051E00008D1B3F854246CF38202A3F85424704716
:1051F000FEF752B85B68024A0221FEF701BE00BF0B
:10520000CCB600008368D3F85424920708D401294F
:1052100008D1B3F8542442F00402A3F85424704790
:10522000FEF73AB85B68024A0221FEF7E9BD00BF0B
:10523000CCB600008368D3F85424C2F3400C920724
:1052400008D4012908D1B3F854246CF3C302A3F89D
:1052500054247047FEF720B85B68024A0221FEF72B
:10526000CFBD00BFCCB600008368D3F854249207AA
:1052700008D4012908D1B3F8542442F00802A3F855
:1052800054247047FEF708B85B68024A0221FEF713
:10529000B7BD00BFCCB6000030B48468D4F8542445
:1052A0009307C2F3400509D401290AD1C4F8445434
:1052B000C3685B6830BC186802F0A2BB30BCFDF765
:1052C000EBBF6368024A30BC0221FEF799BD00BF04
:1052D000CCB600008368D3F8542492070FD4012978
:1052E0000FD110B50446094A0949006900F048FC8D
:1052F000A3685022DA83A36818229A8310BDFDF7B1
:10530000CBBF5B68034A0221FEF77ABD0CBA0000EE
:105310006CAC0000CCB6000030B58568D5F85444BC
:10532000A30783B0C4F3400C11D4022914D81BD0B6
:10533000D5F854241149124B12F0080F114A18BF26
:105340000B46614603B0BDE83040FDF791BE03B0A7
:10535000BDE83040FDF7A0BF6B680B4A022103B0E7
:10536000BDE83040FEF74CBD5568084C1368084A4C
:10537000CDE90045FEF744FD03B030BD38B2000072
:10538000F8B60000FCB60000CCB6000050A6000045
:10539000E8B60000F0B58468D4F85424930785B0CB
:1053A000C2F340071DD4012920D1C3685B681C6883
:1053B0000546204602F020FBA668AB68C2B2642412
:1053C00002FB04F4B4FBF6F4E4B2D3F844340094E2
:1053D000CDE901263946094A2846FDF749FE05B0C0
:1053E000F0BD05B0BDE8F040FDF756BF6368044A64
:1053F000022105B0BDE8F040FEF702BD10B7000085
:10540000CCB600000129844620D030B58468D4F899
:105410005454AB0783B00BD402290FD155680C4C00
:1054200013680C4ACDE90045FEF7EAFC03B030BD35
:10543000604603B0BDE83040FDF72EBF6368064A02
:10544000022103B0BDE83040FEF7DABCFDF724BF0F
:1054500050A60000E8B60000CCB60000F0B58368A6
:10546000D3F85424C2F34004920787B02BD4012907
:105470002ED1D3F84C540DB3194F064628460023BD
:105480000A2203A902F022F9BDF81420B1682846C7
:105490000A23013201F22A2102F018F9B268049DB0
:1054A00002F22A222346009200213A463046013475
:1054B000FDF7DEFD0DB1082CE0D1B368002283F8C2
:1054C0002A2207B0F0BD07B0BDE8F040FDF7E4BE0A
:1054D0005B68044A022107B0BDE8F040FEF790BCCB
:1054E00048B70000CCB60000012984460AD0022942
:1054F0000B460FD08268D2F85414890702D4022BCD
:1055000003D870476046FDF7C7BE5368074A0221BB
:10551000FEF776BC30B5064C55681368054A83B073
:10552000CDE90045FEF76CFC03B030BDCCB6000001
:1055300050A60000E8B600002DE9F04F054689B0FE
:10554000A7480F46904604F0BFFE0446A54804F065
:10555000BBFEAB68A44A5B680092201AA34A84B2DF
:1055600008212846FDF708FEAB685868002800F0BF
:10557000348104F0A9FE86B29B4804F0A5FEAB6816
:105580009968304482B211B12846FDF76BFC984A05
:1055900000212846FDF76CFDB8F1000F33D0002F35
:1055A00000F0368108EB48084FF0000A07F10409C3
:1055B0001FE004F089FE57F82A2006461AB110466B
:1055C00004F082FE0644B4420ED259F82A000028A4
:1055D00000F08F8004F078FE84B257F82A0018B1EA
:1055E00004F072FE204484B20AF1030AD04500F0B0
:1055F000828059F82A000028DBD157F82A20002A97
:10560000F2D00646DBE7774804F05EFE0230044441
:10561000734B784A0093A4B22346082128460334EA
:10562000FDF7AAFD7449A2B22846FDF71BFCAB6842
:10563000D3F80C90B9F1000F51D000263746B04690
:105640000FE0A047049804ACC0B104F03DFE8045D3
:1056500006D22068002845D004F036FE1FFA80F8F4
:10566000103699F80020D9F80440384604A90137CB
:10567000002AE6D1A05934440028E6D1012F2ED0CB
:105680005E4ADFF870B10021284608F1020AFDF7F2
:10569000EFFC00261FFA8AFA13E0A047049F04AC2F
:1056A000EFB108215A46284653460097FDF764FD9E
:1056B000616808F1050292B22846A9B1FDF7D2FB54
:1056C000013699F80030D9F80440320104A9304677
:1056D000002BE2D1A75804EB0614002FE1D109B04A
:1056E000BDE8F08F8046BBE74549286900F048FADD
:1056F000E6E7044671E73B4804F0E6FD0230261871
:10570000B6B2374B3B4A009306F1030A33460821F1
:1057100028461FFA8AFAFDF72FFD374952462846D8
:10572000FDF7A0FB07F108030024039331E0019289
:105730002C4A00922846334A0821FDF71DFD59F8EE
:105740002400002842D004F0BFFD301A1FFA80FB6D
:1057500057F8240028B104F0B7FDABEB00001FFAA6
:1057600080FB204804F0B0FDABEB000292B27ABBA4
:10577000254928693A2200F003FA039B53F82410C4
:10578000D1B152462846FDF76DFB033444453FF442
:105790004EAF59F82430A3B157F82420002AC6D1BF
:1057A000009308213346134A2846FDF7E5FC039B86
:1057B00053F824100029E4D11149286900F0E0F9D8
:1057C000E3E757F82430002BEAD1D6E7B346BFE72A
:1057D0000E49286900F0D4F9CAE70646CCE600BFB6
:1057E00058BA0000C8BB000040BA000058B700001B
:1057F00078B5000084B500008CB50000A0B50000AD
:105800009CBE000054B700008CAC000070B50000D6
:105810000A4804F059FD02300444A4B2084B009336
:105820002846084A23460821FDF7A6FCE21C064943
:1058300092B22846FDF716FBF9E600BFC8BB000090
:1058400058BA000084B500008CB500001A6080686A
:105850001A4602F069B900BF08B5064B06481A6A35
:1058600000210123520903F085F8BDE808400348F0
:1058700000F0DEBDA412002088BC000050BC000077
:1058800031B910B503480C4600F0BCFF204610BDEE
:105890000620704750BC000008B5024800F072FFB7
:1058A000002008BD50BC000070B51D4B0D781E686F
:1058B00082B00C46C5B1012D14D18968F06802F0A0
:1058C00077F9FF216A460091F0682B4601A902F0A2
:1058D000EFF8009AF2B9134B1A6073680120D3E90C
:1058E0000021904702B070BD0B89B06849680093F1
:1058F0006A4602F097F8D4E901120B4800F0DCFF89
:10590000A368002BEED073682846D3E900219047A6
:1059100002B070BD0199044800F0CAFFDDE700BF86
:10592000D0120020CC12002050BC0000F0B51A604C
:1059300083B005461A46C06802F074F8044610B1F8
:10594000204603B0F0BD134F3846FCF78DFF0646E6
:105950000028F5D1FF220192E868012301AA6946D7
:1059600002F0A6F818B13446204603B0F0BDDDE9D8
:105970000012094800F09CFF6B681B7A0646002B5A
:10598000F1D00028EFD10199E86802F011F934460E
:105990003E60E9E7CC12002050BC000070B505461F
:1059A0001848194E056068680024346002606A680F
:1059B00053606B6888B01C724A680B68C8680092B4
:1059C0000989059464220794CDE902440193049265
:1059D0002346ADF81410062406900C4A0C488DF8A6
:1059E0001D40694600F0BCFD044610B1204608B0D9
:1059F00070BDA86802F008F8E86802F005F82046D3
:105A000008B070BDD0120020CC120020A9580000B0
:105A100050BC000010B500201C4603F0B7FD20600C
:105A2000002010BD83681868FCF78ABB10B5416878
:105A30000A6042685360436800241C7204F026F830
:105A4000024B01221A70204610BD00BFD412002064
:105A500010B50446002004F00DF820B16368002062
:105A6000D3E90021904763680120D3E900319847CA
:105A7000A36822461868BDE8104040F26661FCF752
:105A800007BB00BF2DE9F04F1C48D0F8F00083B0F1
:105A90001546C20701932CD5194FDFF86880894657
:105AA0004FF0050A002647F0010705E001232D1BF2
:105AB00088F80030264418D02A4609EB0601002059
:105AC00003F0C2FE04460028F0D198F8003063B11C
:105AD0004FF00A0B4FF47A40B847BBF1010BF9D1F4
